:040000008031102813
:100008007E14803120007F08E500813156212000D0
:100018006508FF007E1009008031122866308400D0
:10002800003085000A308831CD2080312100EE0172
:10003800EF01603084000130850010308831CD2018
:100048008031A0308400013085001D308831CD20FA
:100058007E1020008931192920004203031D4828F9
:1000680040081F39003A031D48282200E9170330C9
:1000780020004106031D46280130D60056082300FB
:10008800B30048282300B30120004208031D0800DC
:1000980040081F39023A031D080044080F39003A86
:1000A8000319080044080F39D60002305602031815
:1000B800080020306C06031D08002200E917200004
:1000C800C41B752844080F390907A43E860001306F
:1000D8008700403FDB00413FDC0044080F39B03E59
:1000E800822844080F390907663E86008701403F89
:1000F800DB00413FDC0044080F39AE3E860001308A
:1001080087000108D6005608DA005A189528FB30EF
:10011800D600FF30D7005B085605DB005C085705A2
:100128009A2804305B04DB0000305C04DC00C41B4C
:10013800A92844080F390907A43E86000130870022
:100148005B08C03F5C08C13FB32844080F39090762
:10015800663E860087015B08C03F5C08C13F0330EC
:100168004106031DD5285B0886005C088700811FAF
:10017800CA28C41BC32844080F39B03EC6284408FF
:100188000F39AE3E86000130870081145B08860077
:100198005C08870001155B0886005C0887008117EA
:1001A800080004305B06DB0000305C06DC005B08FE
:1001B80086005C088700811FFE287F30D6005B0818
:1001C80086005C088700560881055B0886005C0885
:1001D800870001170030D1000530D0005C08D3003B
:1001E8005B08D2000230D4000030D5008B317E236A
:1001F8008031042920005B0886005C08870001170D
:10020800043020005B06DB0000305C06DC00DA18F6
:1002180013295B0886005C088700811F3829C41BE6
:10022800192944080F39B03E1C2944080F39AE3E3D
:1002380086000130870081103B30D6005B088600BD
:100248005C088700560881050030D1000530D000D1
:100258005C08D3005B08D2000230D4000030D5001F
:100268008B317E23803141293B302000D6005B084A
:1002780086005C08870056088105200044080F396D
:10028800983ED600D7010E30D73D5608D8005708FB
:10029800D900FE30D600580886005908870056084D
:1002A8008105080020006C03031D65293D008E1A96
:1002B800652990011214121602302000E20062082B
:1002C800EC003D001019121D7229FB302000E200DD
:1002D80062083D0090058A314A2281313D008E1C1A
:1002E80078292000121108001018121C8A2983315D
:1002F800B42381312100121504302000E200620885
:10030800EC00FE30E20062083D009005101A121E53
:1003180090298A310B2281313D00101FBA29121F02
:10032800A52973302000D0000030D1000030D20061
:100338000030D3000130D4000030D5008B317E234B
:100348008131BF302000E20062083D00900589310C
:100358005421813122006D080319B4290130ED02BE
:100368006D08031DBA298E311E2681313D00901A71
:10037800921EC1298A31B02281313D009018921C09
:10038800D729FF302000D0007F30D1000030D200C4
:100398000030D3000130D4000030D5008B317E23EB
:1003A80081313D009301043020006C020318DE29DE
:1003B800121108003D00921D362A2000E401043085
:1003C80064020318362A3D00901D362A0F082000C3
:1003D800E2006208EF006F0CE200E20C620C0F39D9
:1003E800E30063082200EE00F7302000E200620814
:1003F8003D00900520006F19052A22006E08B03EC6
:10040800082A22006E08AE3E8600013087000108E7
:1004180001392000E2000130E20601086206FE39D7
:100428006206810022006E08031D1E2A8C31A22458
:1004380081312D2A72302000D0000030D1006F3079
:10044800D2000030D3000030D400D5008B317E2399
:10045800813101302000E2006208E40704306402C0
:10046800031CE729200012110800FB3482344134B0
:10047800823475348234A3348234343403344D34B2
:1004880000346934003463340034723400346F3417
:100498000034633400346834003469340034703410
:1004A8000034203400345434003465340034633468
:1004B8000034683400346E3400346F3400346C34E3
:1004C80000346F3400346734003479340034203415
:1004D8000034493400346E340034633400342E342C
:1004E80000342E34033453340034693400346D340A
:1004F8000034703400346C340034653400342034F3
:10050800003448340034493400344434003420344E
:1005180000344434003465340034763400346934AB
:1005280000346334003465340034203400344434F7
:100538000034653400346D3400346F3400340934C9
:10054800023429340034013401340034C0343234E4
:1005580009340434003400340234033400340034E1
:100568000034093421341134013400340134223484
:100578001D340034073405348134033440340034E6
:100588000134073405340134033440340034013471
:1005980006340034FF3409340134A13401341934E9
:1005A800013429344034153400342634FF340034FF
:1005B80075340834953440348134003419340134A6
:1005C8002934403491340034C034123401340034B6
:1005D80002340034003400340834D83404343F344E
:1005E800003400340134013402340034013404345A
:1005F800033409340434210012113D0093019001A1
:1006080098010E302100E2009930E100E30163080F
:10061800031D1E2B610886006208870081010130D6
:10062800E1070030E23D0130E0006008E3076308BD
:1006380003190E2B16303D0091009F3097007B3038
:1006480092002100E401083064020318442B640876
:10065800E0000130E035FF3E031D2E2B6035203EC3
:10066800860087010030C03F0030C13FC23FC33F12
:100678000130E0006008E40708306402031C2B2BFB
:100688003D000E1796010E120E13F7302100E00000
:1006980060083D0090052200E901E201E301E40160
:1006A8003D009019492B01302100E000600823002B
:1006B800B70001302100E00060082300B800B50150
:1006C800B601B4012100E4010230640203188F2B43
:1006D8006435663E860087010030C03FC13F6435FF
:1006E800A43E8600013087000030C03FC13F640847
:1006F800AE3E86000130870081016408B03E860066
:100708000130870081010130E0006008E407023011
:100718006402031C6C2B28302000E6000030E70040
:1007280016303D00980000302000A3004030A200A1
:100738000830A10004302100E00060082000A0007B
:10074800A0172100EE0100302300A3000030A20012
:100758000030A1000030A000B9012000EC01080021
:10076800210012113D009301900198010E30F20012
:100778009930F100F3017308031DD22B710886002C
:100788007208870081010130F1070030F23D013025
:10079800F0007008F30773080319C22B16303D00E8
:1007A80091009F3097007B309200F401083074026A
:1007B8000318F72B7408F0000130F035FF3E031DD5
:1007C800E12B7035203E860087010030C03F0030A5
:1007D800C13FC23FC33F0130F0007008F407083042
:1007E8007402031CDE2B3D000E1796010E120E1329
:1007F800F730F000700890052200E901E201E301FA
:10080800E4013D009019FC2B0130F0007008230032
:10081800B7000130F0007008B800B501B601B401A6
:10082800F4010230740203183C2C7435663E8600CD
:1008380087010030C03FC13F7435A43E86000130B7
:1008480087000030C03FC13F7408AE3E86000130CB
:10085800870081017408B03E86000130870081015D
:100868000130F0007008F40702307402031C192CE0
:1008780028302000E6000030E70016303D009800E0
:1008880000302000A3004030A2000830A10004304E
:10089800F0007008A000A0172100EE01003023002E
:1008A800A3000030A2000030A1000030A000B90170
:1008B8002000EC01080020006E0886008701413FF7
:1008C800F5007508F200F301730822006402031DA5
:1008D8006F2C720863020318752C6308F200720803
:1008E800F5007508F200F3017208E3027308E43BAF
:1008F800F401750874020318952C7408483E8600A4
:1009080087010108F20060088600870172088100EB
:100918000130F2007208E0070130F2007208F407B3
:100928007D2C630864040319D02C20006A08013E5A
:10093800F20000306B3DF3007208860073088700F0
:10094800083081004830F2000030F3006A08860061
:100958006B08870042317208C03F7308C13F6E08B8
:1009680086008701011BC42C6A0886006B08870073
:10097800483081006A0886006B08870081170800E4
:100988006A0886006B088700083081006A088600BC
:100998006B0887008117080020006A08013EF200F2
:1009A80000306B3DF300720886007308870008303A
:1009B80081004030F2000030F3006A0886006B08BE
:1009C800870042317208C03F7308C13F6A08860039
:1009D8006B088700043081006A0886006B0887006E
:1009E8008117220065086608E2136C08031D0800D9
:1009F8008E311E260800203020006C02031C0800DF
:100A08003D008E18080023002C082D040319742DAE
:100A18002C0886002D088700811B0800742D0230E1
:100A28008B31BF238431802D23002A082B0403191E
:100A3800232D2A0886002B088700811B802D8130F2
:100A48002100EB006B082200A000013089313D2114
:100A58008431003A031D342D2200A101A10A5C2D26
:100A68002200A1015C2D23002A082B040319422D22
:100A78002A0886002B088700811B802D0A308A31BE
:100A8800D522843121006108ED006008EC00373080
:100A9800EB006B082200A00021006C08EB006B083B
:100AA8002200A10021006D08EB006B082200A200C3
:100AB8002100E001E00A2030E1000130E20040308E
:100AC800EB006B08E30001308631AF26843121004A
:100AD80061082300AB00210060082300AA00802DD4
:100AE80021002008373A0319372DB73A0319132D77
:100AF800013A0319182D802D2100E001A030E100F2
:100B08000030E2004030EB006B08E3000130863132
:100B1800AF26210061082300AD00210060082300F2
:100B2800AC0008003D000E122200E91BDD2DE21F7B
:100B3800AC2D0230F50075082000ED0023003608C2
:100B4800031DA82D8C31F6242300B801B701080035
:100B580020006A08013EF50000306B3DF60075087C
:100B6800860076088700083081004030F5000030A4
:100B7800F6006A0886006B08870042317508C03F96
:100B88007608C13F6A0886006B0887000C30810030
:100B98006A0886006B088700811766088600670860
:100BA800870004308100660886006708870081177F
:100BB80008002000C01FF52D0130F5007508ED0074
:100BC80023003508031DEB2D8C31F62485312300D5
:100BD800B801B70122006C08031D08008E311E26DB
:100BE80008000230F50075082000ED006A08013E93
:100BF800F50000306B3DF600750886007608870022
:100C0800083081004030F5000030F6006A088600A0
:100C18006B08870042317508C03F7608C13F6A08F3
:100C280086006B088700043081006A0886006B081C
:100C3800870081172300B801B70122006C08031D43
:100C480008008E311E260800200040081F39013A8E
:100C5800031D08004408031D080006304106031957
:100C6800512E5D2E21006E03031D5D2EB53022002E
:100C7800E7008230E8000030EB0009304B2ECC3022
:100C88002200E7008230E8000030EB001D30EA0067
:100C9800C030F0007008E9005D2E20004308213ABA
:100CA8000319362E033A0319432E013A03195D2E10
:100CB8005D2E2000400E890C0339013A031D0800FF
:100CC800992EBC302200E7000130E8000030EB002C
:100CD8000130EA00C130F0007008E90008008030F7
:100CE800F00070082200E90020004308F0007008B6
:100CF8002300BC000800BB302200E7000130E800F8
:100D08000030EB000130EA008130F0007008E900A3
:100D180008008030F00070082200E9002000420836
:100D2800F00070082300BB00080020004108013AC9
:100D38000319AE2E033A0319652E013A03197F2EC3
:100D48000A3A0319AE2E033A0319732E013A03190E
:100D58008D2EAE2E08002100E80060080319BC2E75
:100D68006835663E86008701403FE900413FC42E52
:100D78006835A43E860001308700403FE900413FC6
:100D8800EA0069086A04031DCC2EE001E1010800AD
:100D9800FF306105E4007F306205E50069088600E0
:100DA8006A08870042316408C03F6508C13F690886
:100DB800013EE40000306A3DE500640886006508ED
:100DC8008700630881004030E400690886006A08EB
:100DD800870064088105690886006A08870081150C
:100DE800690886006A088700811760080319132FAD
:100DF8006835663E86008701403FE400413FE500D4
:100E080004306406E60000306506E7006835663E93
:100E1800860087016608C03F6708C13F2B2F6835E9
:100E2800A43E860001308700403FE400413FE500D2
:100E380004306406E60000306506E7006835A43E25
:100E48008600013087006608C03F6708C13F6A080E
:100E5800E1006908E00008002200E9170E302000D0
:100E6800D8009930D700D9015908031D4B2F5708CE
:100E780086005808870081010130D7070030D83D27
:100E88000130D6005608D907590803193B2F0030FE
:100E9800F000F1002030F2000030F30020308931FA
:100EA800B72187313D000E172000DA0102305A02BF
:100EB8000318722F5A08AE3E860001308700810160
:100EC8005A08B03E86000130870081010130D60003
:100ED8005608DA0702305A02031C5E2F0030F00071
:100EE800F1000130F2000030F300EF308931B72112
:100EF80087313D000E1328302000E6000030E7005F
:100F08002030D6005608EE006E08EA00FF39031DAF
:100F18000030EB004208D60056082100EE006E08AB
:100F2800031D9C2F10302000D6005608EC00080046
:100F380000302000D1000130D000EE30D200003067
:100F4800D3000130D4000030D5008B317E2320300F
:100F58002000D6005608EC0008003D008E1CF22F39
:100F6800013089316C210800230028032904031D5E
:100F7800C22F0130893185218731F82F4B3023006A
:100F880028062904031DCD2F013089316C218731B2
:100F9800F82F0030230029029730EB2F2300280375
:100FA8002904031DDC2F0130893185218731F82F71
:100FB8003230230028062904031DE72F0130893128
:100FC8006C218731F82F033023002902B730031929
:100FD8002802031CF82FA801A901F82F20006C088B
:100FE800203A0319B82FD22F01302300A807003068
:040FF800A93D080007
:101000008D31762D8D31792D8D31B12D8D31792D1B
:101010008D31B12D8D315A2D8D31622D8D31982D1F
:101020008D31682D8D31652D8D317C2D8D318C2D3F
:101030008D31B12D89313C2989312A2989312C29D9
:1010400089312E29893130298C31042C8B31C22BE6
:101050008B31D22B8C31042C8B31E32B8931B62987
:101060008931A0298931A3298931A6298931A92962
:1010700089319D298931872989318A2989318D29A9
:10108000893190298931842989316E2989317129E1
:081090008931742989317729A7
:10119A00640080010131890BCE280034F000700808
:1011AA00003A0319DC28013A0319DC28DC28080074
:1011BA00F0007008031D0800293021009D00E0306E
:1011CA009E009F0108002100E0006008031D08003E
:1011DA0029309D00E0309E009F0108002100E000B8
:1011EA006008003A0319FD28013A0319FD28FD2871
:1011FA000800F000052921000D1623000D1608002D
:10120A0070080A3A031900290A2908002100E00097
:10121A0012290D1623000D160800210060080A3A4B
:10122A0003190E291829080000308A318C228931C5
:10123A008231FF2289318931EE2189318431FF24BB
:10124A00893123292100E00032290E1008008E106E
:10125A0008000E1108008E1108006008840005308D
:10126A00040203180800883104351A3E8200080077
:10127A002100E0004929031020008C1D03140030CE
:10128A00093D08000030080021006008003A0319EF
:10129A004729013A03194029522900300800013030
:1012AA002300A0070030A13D0030A23D0030A33D3D
:1012BA003408031D08000130F0007008B907390826
:1012CA00031D0800FF30F0007008B9000800F000A4
:1012DA007A2922000E10080022008E10080022002F
:1012EA000E11080022008E110800700884000530D3
:1012FA0004020318080088310435423E82000800BF
:10130A00F000932922000E14080022008E1408000F
:10131A0022000E15080022008E15080070088400AD
:10132A00053004020318080088310435383E82006B
:10133A000800F000AC2921000E10080021008E10D0
:10134A00080021000E11080021008E110800700803
:10135A0084000530040203180800883104352E3E43
:10136A0082000800F6007608F4007408F5000130DF
:10137A00F2020030F33B720A0319730A03190800D8
:10138A007008F4007508860087017408810001302E
:10139A00F4007408F507BC292300AA01AB011E302A
:1013AA00FD007D08F70001308A312A228931F001D7
:1013BA00A030F1000030F2004030FD007D08F3005B
:1013CA0001308F31802771082300AD007008AC000E
:1013DA00080020006C08031D08003D008E019201E0
:1013EA00163091009F3097007B3092002100121531
:1013FA000B178B173D008E19042A8E15FF29013011
:10140A002100E00060082000EC0008003D001215F1
:10141A00EF302000D60056083D0090058E140130AA
:10142A002000D60056082300B400B9017530200008
:10143A00D0000030D1000030D2000030D30000309C
:10144A00D400D5008B317E230800FC00771D322A98
:10145A00F0017C088B313D238A31F71C392AF001CF
:10146A00F00A7C088B313D237C08983EF800F9018C
:10147A000E30F93D7808FA007908FB007A088600F0
:10148A007B0887007708810008002300B4017430C4
:10149A002000D0000030D1000030D2000030D3004C
:1014AA000030D400D5008B317E238A313D008E1066
:1014BA001211101D672AFB302000D60056083D0085
:1014CA0090055E2A2300B9010800F100802A013044
:1014DA0089319E218A31023089319E218A31013037
:1014EA008831D3208A3100308831DD208A310A30B0
:1014FA008831FE2008007108003A03196C2A013A63
:10150A0003198B2A033A03198B2A8B2A0800210014
:10151A00E100A32A0130893127218A310230893139
:10152A0027218A3101308831F3208A31003088310D
:10153A00E8208A310A3089310B210800210061082C
:10154A00003A03198F2A013A0319AF2A033A0319F9
:10155A00AF2AAF2A08003D00181CD02A20006E08C6
:10156A008600870180300106031DCE2A66088600A0
:10157A006708870084300106031DCE2A0C30F0006C
:10158A006E0886008701700881006E088600870150
:10159A0081173D001810DF30F00070089005080030
:1015AA002100E600DD2AFF30E000FF30E1000800FC
:1015BA0066080A3A0319E22AD82A6608E200E20D06
:1015CA00E20D1D086206833962069D009D149D186E
:1015DA00EC2A1C08E200E3016208E4006308E50063
:1015EA000830E435E50D890BF62A1B08E200E30111
:1015FA006208E4046308E5046508E1006408E000A1
:10160A000800023020006D06031D0E2B84315F2472
:10161A0008002000ED0123003208031D3A2B2000A8
:10162A006A08013EF60000306B3DF7007608860036
:10163A0077088700083081004030F6000030F70054
:10164A006A0886006B08870042317608C03F77082F
:10165A00C13F6A0886006B0887000C3081006A085F
:10166A0086006B088700811708002300B201080072
:10167A00F5002030F1007108F6007008F100013021
:10168A00F135890B452B7508F2000130F235FF3E22
:10169A00031D4B2B72357107F3000130F335FF3E02
:1016AA00031D532B7335F4007408F6077608860079
:1016BA00870181137008031D6C2B7535A43E8600C3
:1016CA00013087007608C03F0030C13F742B753562
:1016DA00663E860087017608C03F0030C13F760823
:1016EA008600870101137608043E860087010117E8
:1016FA000800962B8731B12708008731B1278B3133
:10170A0001308A316A2208008731B1278B310230D1
:10171A008A316A2208008931D121080086312826B7
:10172A00080020005108003A03199F2B7F3A031939
:10173A00B92BBE2B5008013A0319902B033A03190F
:10174A00BE2B013A0319932B063A0319BE2B773A9B
:10175A000319BE2B013A03197F2B073A0319892B68
:10176A00013A0319822BBE2B5008FF3A0319BE2BEC
:10177A00BE2B08002100E100F92B22000E080139D6
:10178A002100E0000130E00622000E082100600678
:10179A00FE39600622008E00080022000E0C013974
:1017AA002100E0000130E006E00D22000E082100D1
:1017BA006006FD39600622008E00080022000E0C29
:1017CA002100E000E00C600C0139E0000130E00685
:1017DA00E00DE00DE00D22000E0821006006F73949
:1017EA00600622008E00080021006108840005308E
:1017FA0004020318080088310435243E82000800D8
:10180A002200EF01EC012300B501B601B20120006C
:10181A00ED017F30DE0066088600670887005E08F3
:10182A00810504306606E60000306706E7007F306F
:10183A00DE0066088600670887005E0881050430B6
:10184A006606E60000306706E7007F30DE006A08B9
:10185A0086006B0887005E0881052200E901EA011B
:10186A00EB01E201E301E4018D3152258C310030B4
:10187A002000D1000330D0000030D2000030D30065
:10188A000030D400D5008B317E238C3185319625EA
:10189A0008002000C801C901892C2200E917230089
:1018AA003303031D952C2000C814952C2200E91738
:1018BA00952C2200E9172000C41B6E2C44080F390E
:1018CA000907A43E860001308700403FF100413FEE
:1018DA00772C44080F390907663E86008701403F86
:1018EA00F100413FF2007108860072088700811FEB
:1018FA00952C7108860072088700011D952C01300D
:10190A00F0007008C800952C40081F39003A0319E6
:10191A00522C013A03195B2C033A03195E2C952CBD
:10192A002200E91F08004830E7000030E800691487
:10193A000230F0007008EA0008002D302000DF00B5
:10194A005F082200ED0020006F08FD39031DEB2C13
:10195A006F363F39DF000130DF35FF3E031DB12C02
:10196A005F35203EE0006008EE006E08EA00FF39AD
:10197A00031D0030EB0004306A06EA0000306B06F3
:10198A00EB006E0886008701010C890C0F390D3AAD
:10199A00031DE82C40308600870120006E08023EB5
:1019AA0084008501003FDF00013FE0005F088400FA
:1019BA00600885000830E10012001E00E10BE12CEE
:1019CA008C31052408008B3106230800FD302000E5
:1019DA006F05DF0004305F06031D08008D31B22554
:1019EA0008002300B501B601023020006D06031D70
:1019FA00232D6A08013EF30000306B3DF4007308A2
:101A0A00860074088700083081004830F3000030EF
:101A1A00F4006A0886006B08870042317308C03FE9
:101A2A007408C13F6A0886006B0887004830810045
:101A3A006A0886006B0887008117080022006B0875
:101A4A0020004702031D2D2D22006A0820004602AD
:101A5A000318362D47082200EB0020004608220012
:101A6A00EA008E318E264830F3000030F400200060
:101A7A00660886006708870042317308C03F740809
:101A8A00C13F6608860067088700483081006608FB
:101A9A00860067088700811708002000400E890C1D
:101AAA000339003A031D0800A62D2200E917083061
:101ABA002000DD005D08EC0008008F3101270800D6
:101ACA00873130270800EE302200E7000030E800B6
:101ADA00691401302000DD005D082200EA00E917E0
:101AEA0008008C314E240800803130200800200084
:101AFA004408EF3E2200E7000030E8006914013094
:101B0A002000DD005D082200EA00E9170800220033
:101B1A00E91720004208DD004408EF3E86008701ED
:101B2A005D08810008000030D1000230D00000308A
:101B3A00D2000030D3000030D400D5008B317E2390
:101B4A0008002000410884000D3004020318080030
:101B5A0088310435003E82000800200066088600AD
:101B6A00670887000030011B0130F5000430660663
:101B7A00E60000306706E70008306C06031DD32D27
:101B8A0042087F393D00960016080319CE2D103001
:101B9A00CF2D0430F30073082000EC006D03031D01
:101BAA00152E4830F3000030F400660886006708F6
:101BBA00870042317308C03F7408C13F8E318E26B8
:101BCA008D31023022006F06031DF82D20006608B1
:101BDA008600670887000430810066088600670867
:101BEA008700811708007508031D082E2000660863
:101BFA008600670887004830810066088600670803
:101C0A008700811708002000660886006708870099
:101C1A000830810066088600670887008117080077
:101C2A002200E21F1B2E65086608E2132000ED0160
:101C3A00080023003708031D08000130F00070086F
:101C4A00B7003808031D08000130F0007008B8001A
:101C5A00023020006D06031D442E660886006708C0
:101C6A00870041318101660886006708870048308D
:101C7A0081006608860067088700811708006D03DF
:101C8A00031D08002300B2010830F00020006E0A8C
:101C9A0086008701700881004030F0000030F100B2
:101CAA006E08023E860087017008C03F7108C13F76
:101CBA000430F0006E0886008701700881006E0803
:101CCA008600870181170130F00070082300B200F6
:101CDA0020006A08013EF00000306B3DF1007008F8
:101CEA00860071088700083081004030F00000301B
:101CFA00F1006A0886006B08870042317008C03F0D
:101D0A007108C13F6A0886006B088700803081002D
:101D1A0008000830F0007008F200003022006B0260
:101D2A00083003196A020318AA2E6A08F00070081C
:101D3A00F2006F08031DA32E0130A72E6F03031DA7
:101D4A00AA2E0230F0007008EF007208F000F101CC
:101D5A007008EA027108EB3B20006608013EF000B9
:101D6A000030673DF100700886007108870072082C
:101D7A0081004830F00070082300BA002200691C74
:101D8A00E02EFD2E220067088400680885000008FE
:101D9A00F00023003A0886008701700881000130AC
:101DAA002200E7070030E83D0130F0007008230008
:101DBA00BA070130F202720803190800C72E22007E
:101DCA0067088400680885000008F00023003A08C4
:101DDA00860087017008810001302200E707003081
:101DEA00E83D0130F00070082300BA070130F20222
:101DFA00720803190800E42E803020004006031DF3
:101E0A000800C030F00070082200E900732FE930A2
:101E1A002200E7008230E8000030EB001230EA00CE
:101E2A00080020004208031D492F4208F000F10172
:101E3A00F035F10D3F30700784008230713D850026
:101E4A00003F2200E700013FE8006808F100670848
:101E5A00F00002307007840071080318710A8500C7
:101E6A000008F2007208EA006808F1006708F0004A
:101E7A0003307007840071080318710A850000088E
:101E8A00F2007208EB0008002200E90108000330A2
:101E9A002000420203186D2F4208F000F101F035CC
:101EAA00F10D3930700784008230713D8500003FA2
:101EBA002200E700013FE8006708840068088500FF
:101ECA000008F000F1017008EA007108EB00080050
:101EDA002200E90108002200E90108002000430865
:101EEA00013A03190C2F033A0319162F013A031961
:101EFA004C2F702F0800F800700803198C2F7835C2
:101F0A00663E86008701403FF900413F942F7835AD
:101F1A00A43E860001308700403FF900413FFA00A5
:101F2A0079087A04031D9C2FF001F1010800FF30A3
:101F3A007105F4007F307205F500790886007A0889
:101F4A00870042317408C03F7508C13F7908013ED5
:101F5A00F40000307A3DF5007408860075088700A1
:101F6A00730881004030F400790886007A088700F7
:101F7A0074088105790886007A088700811579082E
:101F8A0086007A088700811770080319E32F7835CD
:101F9A00663E86008701403FF400413FF500043069
:101FAA007406F60000307506F7007835663E86003E
:101FBA0087017608C03F7708C13FFB2F7835A43EDA
:101FCA00860001308700403FF400413FF5000430AD
:101FDA007406F60000307506F7007835A43E8600D0
:101FEA00013087007608C03F7708C13F7A08F100C0
:061FFA007908F000080068
:020000040001F9
:04000E00A2CF4FDF4F
:00000001FF
